S01D0000536D617274205061726B696E672050726F6A6563742E737265631D
S1130000F2C300000EC400000CC400000AC40000C7
S113001008C4000006C4000004C4000002C40000B8
S113002063C40000FEC30000FCC30000FAC3000068
S1130030F8C30000F6C30000F4C30000F2C30000DC
S1130040F0C30000EEC30000ECC30000EAC30000EC
S1130050E8C30000E6C30000E4C30000E2C30000FC
S1130060E0C30000DEC30000DCC30000DAC300000C
S1130070D8C30000D6C30000D4C30000D2C300001C
S1130080D0C30000CEC30000CCC30000A306A30667
S1130090A306A306A306A306A006A006A006A00620
S11300A0A006A006A006A006A006A006A006A0061C
S11300B0A006A006A006A006A006A006A306A30606
S11300C0A306A306A306A306A306A306A306A306E4
S11300D0A306A306A306A306A306A30694069706EF
S11300E09A069D0620FF00000000000000000000AA
S11300F0005F5F0000000007070007070000147F8F
S11301007F1C7F7F140000242A7F7F2A120046660A
S113011030180C666200307A4F5D377A4800000070
S113012000070700000000001C3E634100000000BF
S113013041633E1C0000082A3E1C1C3E2A0800089D
S1130140083E3E080800000080E06000000000084F
S11301500808080808000000006060000000603023
S1130160180C060301003E7F5149457F3E000040C4
S1130170427F7F40400000727B49496F6600002245
S11301806149497F36001814527F7F5010000027C0
S11301906F4949793300003E7F49497B32000003AF
S11301A001717D0F070000367F49497F3600002624
S11301B06F49497F3E000000006C6C0000000000A5
S11301C080EC6C00000000081C3663410000002431
S11301D0242424242400004163361C080000000267
S11301E00351590F06003E7F415D5D5F1E00007C98
S11301F07E13137E7C00417F7F49497F36001C3E7D
S1130200634141632200417F7F41633E1C00417F83
S11302107F495D416300417F7F491D0103003C7EAE
S1130220434151737200007F7F08087F7F000041C3
S1130230417F7F414100307040417F3F0100417F59
S11302407F081C776300417F7F41406070007F7F9F
S11302500E1C0E7F7F007F7F060C187F7F001C3EE4
S11302606341633E1C00417F7F49090706003C7ED1
S11302704351336E5C00417F7F09193F66000026BD
S11302806F49497B32000003417F7F410300003FF7
S11302907F40407F3F00001F3F60603F1F007F7F23
S11302A03018307F7F0061731E0C1E7361000007DD
S11302B04F78784F0700476371594D67730000000A
S11302C07F7F414100000103060C183060000000EC
S11302D041417F7F0000080C0603060C0800808063
S11302E0808080808080000002060C08000020745A
S11302F054543C784000433F7F44447C38000038E9
S11303007C44446C2800387C44453F7F40000038DE
S11303107C54545C180000487E7F49030200009816
S1130320BCA4A4FC7C00417F7F08047C780000000E
S1130330447D7D4000000060E08084FC7D00417FBE
S11303407F10386C44000000417F7F400000787CBF
S11303500C380C7C7800047C78040478780000382D
S11303607C44447C380084FCF8A4243C1800183CE9
S113037024A4F8FC8400447C78440C080000004861
S11303805C545474200000043F7F44642000003C0B
S11303907C40407C7C00001C3C60603C1C003C7C3D
S11303A06038607C3C00446C3810386C4400009C1D
S11303B0BCA0A0FC7C00004C64745C4C4400004174
S11303C041773E0808000000007F7F00000000081D
S11303D0083E7741410002030103020101000000CD
S11303E0000000000000000000FFFF0000001818DB
S11303F01818181818180000001F1F1818180000E3
S113040000F8F8181818181818F8F8000000181848
S1130410181F1F0000001818181F1F1818180000B4
S113042000FFFF181818181818F8F81818181818D2
S113043018FFFF000000181818FFFF18181800080C
S11304401C3E0808080000080C3E0C0800000008C8
S113045008083E1C08000008183E180800000000A8
S11304600000F0F0F0F0F0F0F0F000000000F0F028
S1130470F0F0F0F0F0F0000000000F0F0F0F00009C
S11304800000FFFFFFFFF0F0F0F00F0F0F0FF0F090
S1130490F0F0FFFFFFFF0F0F0F0F000000000F0F22
S11304A00F0FF0F0F0F0FFFFFFFF00000000FFFF70
S11304B0FFFFF0F0F0F00F0F0F0F0F0F0F0F0F0FE4
S11304C00F0FFFFFFFFFFFFFFFFF0F0F0F0FFFFFD8
S11304D0FFFFFFFFFFFFC0C0C0C0C0C0C0C0FCFC26
S11304E0FCFCFCFCFCFC0000000000000000000020
S11304F0007D7D000000387C44FE446C2800487E6A
S11305007F4949636200005A3C24243C5A00001588
S1130510577E7E57150000000077770000004048A2
S11305207E771D09010000030300000303001C2261
S11305305D5555221C00485D554F5E500000081C57
S1130540362A1C3622000008080808081800000093
S11305501010100000001C225D4D55221C000000EC
S1130560010101010000000E1B111B0E00000048D8
S1130570487E7E48480000191D151712000000111E
S113058015151F0A0000000004070300000000F80E
S1130590F84040783800020F7F7F017F010000009F
S11305A00018180000000000404060000000000037
S11305B0111F1F100000004E5B515B4E00002236DD
S11305C01C2A361C0800021F0030287C2000021F51
S11305D00048645448001115150A30287C20003066
S11305E0784D4570300000787D15147C78000078D3
S11305F07C14157D780000787C15157C78000078D3
S11306007D15157D780000797D14147D79000078BE
S11306107E15157E7800787C127F7F496B000C9ED6
S1130620B3E1E1331200447D7D5454544400447CCE
S11306307C5555544400447C7D5555554400447DB7
S11306407D54555544000044457D7C444400004499
S1130650447C7D4544000044457D7D45440000457F
S1130660457C7C454500497F7F49633E1C00007AF8
S11306707911227A7900387C4545447C3800387CED
S11306804444457D3800387C4545457C3800387DF8
S11306904545457D3800387D4544457D38004266F2
S11306A03C183C6642005C3E735D673E1D01003CA5
S11306B07D41407C3C00003C7C40417D3C00003C52
S11306C07D41417D3C00003D7D40407D3D00000C6E
S11306D05D71705C0C007F7F2222221C00007E7FF3
S11306E04949493E3600207555543C7840002074F1
S11306F054553D784000207455553D784000207590
S113070055553D794000207555543D79400020767B
S113071055553E7840002074547C345458000018D9
S11307203CA4E424280000387D55545C18000038AB
S11307307C54555D180000387D55555D180000390E
S11307407D54545D19000000497B7A40000000008C
S1130750487A7B41000000004A7979420000000297
S11307604A78784202000035754B4E7D3100087A94
S113077071090A7A71000030794B4A7830000030F0
S1130780784A4B79300000307A49497A3000003297
S113079079494A7A310000327A48487A32000008AE
S11307A0086B6B08080080B0786858783404003807
S11307B079434278780000387842437978000038E9
S11307C07A41417A7800003A7A40407A7A00009877
S11307D0B8A2A3F97800007E242424180000009A0B
S11307E0BAA0A0FA7A0011241FBECFEFD0E1DEBF79
S11307F0CDBF11E0A0E0B1E0E4E7FBE100E00BBF16
S113080002C007900D92A03AB107D9F722E0A0EAFE
S1130810B1E001C01D92AC31B207E1F710D10C94E4
S1130820B80DEECBE4E7F0E0108294EA9083909167
S113083074009923E4F790917100987F983091F4B3
S11308408093730084E880937400809174008823FB
S1130850E4F780917100887F883131F0803431F47D
S113086080E0089581E0089580E0089581E008958E
S11308708093730084E880937400809174008823CB
S1130880E4F780917100887F883211F081E0089547
S113089080E0089584E980937400089582B18061B2
S11308A082B983B1806183B92FE38DE093E0215055
S11308B080409040E1F700C0000083B18F7E83B98F
S11308C02FE38DE093E0215080409040E1F700C099
S11308D0000083B1806183B987EA91E60197F1F75B
S11308E000C000005BC208951F920F920FB60F92D2
S11308F011240BB60F928F939F93AF93BF93EF93F3
S1130900FF938091A4018F5F8093A4018091A4013F
S11309108130A1F4EAE8F0E0808181608083109264
S1130920A0011092A1011092A2011092A3018AB712
S11309308F7B8ABF8AB780688ABF1DC0EAE8F0E06F
S113094080818E7F8083E8E8F0E080819181A0E05F
S1130950B0E08093A0019093A101A093A201B09371
S1130960A3011092A401118210828AB780648ABF05
S11309708AB780688ABFFF91EF91BF91AF919F9131
S11309808F910F900BBE0F900FBE0F901F90189574
S1130990EAE8F0E080818E7F808380818D7F808390
S11309A080818B7F808382B18F7782B983B18068A5
S11309B083B982B1886082B989B7806889BF8AB7F0
S11309C080648ABF8AB780688ABF7894089587B3A1
S11309D0806687BB8FB582608FBD8EB588618EBD02
S11309E08FE19EE497BD86BD8EB581608EBD8FB5C7
S11309F0806C8FBD8FB580638FBD86B597B58C5DD8
S1130A0095409BBD8ABD86B597B58C5D954099BDD3
S1130A1088BD089580E487B983EC86B93699FECF02
S1130A2086B1806186B9089586B1806486B93699A5
S1130A30FECF86B1806186B984B195B10895CF9314
S1130A40DF93CDB7DEB766970FB6F894DEBF0FBE5F
S1130A50CDBF84B3846084BBDDDFB9DF99DF1EDFE3
S1130A6080E0E2DF7C018E010F5F1F4F84E1F8011B
S1130A7011928A95E9F780E3898383B1886083B909
S1130A8085EA9EE00197F1F700C0000083B1877FFB
S1130A9083B96091A0017091A1018091A20190910C
S1130AA0A30191D426E933E44BE85CE3F2D45AD4AD
S1130AB07E8B6D8B8D899E899F938F9380E091E0CF
S1130AC09F938F931F930F9378D528E031E041E0F3
S1130AD061E081E092E015D18D899E890F900F909D
S1130AE00F900F900F900F900A9774F486B597B5F6
S1130AF0845F91409BBD8ABD21E331E042E061E027
S1130B0081E092E0FED00DC086B597B58C5D95402E
S1130B109BBD8ABD25E131E042E061E081E092E0E5
S1130B20F0D094EFE91691E0F90620F485B38460DF
S1130B3085BB03C085B38B7F85BBB0990EC086B5DA
S1130B4097B58C5D954099BD88BD21E231E043E0C5
S1130B5061E081E092E0D5D083CF86B597B5845F1C
S1130B60914099BD88BD2FE231E043E061E081E02E
S1130B7092E0C7D0EFEBF7E229E0E150F0402040EB
S1130B80E1F700C000006CCFCF93DF93DC011C962B
S1130B90ED91FC911D9784913196E491681738F199
S1130BA0E61738F1262F30E0281B3109220F331FB6
S1130BB0220F331F220F331F2E5F3F4F80E00EC0E2
S1130BC0EA01C80FD11D1C96ED91FC911D97E20F0F
S1130BD0F31FE491E8832F5F3F4F8F5F883080F3EA
S1130BE00BC0FA01E90FF11D10829F5F03C090E072
S1130BF001C090E09830A8F351968C91811109C0FE
S1130C000BC0FA01E80FF11D9081909590838F5FDE
S1130C1001C080E08830A8F3DF91CF910895662366
S1130C2029F06A3031F0862F90E008958FEF9FEF1E
S1130C3008958FEF9FEF0895FC01758764870895E9
S1130C40CF92DF92EF92FF920F931F93CF93DF9394
S1130C50CDB7DEB728970FB6F894DEBF0FBECDBF71
S1130C607C01D62EC42EAE014F5F5F4F622F8CDF06
S1130C708E010F5F1F4F21E04C2D6D2DC701FFD159
S1130C8028960FB6F894DEBF0FBECDBFDF91CF918B
S1130C901F910F91FF90EF90DF90CF900895FC018A
S1130CA0158A0895DF92EF92FF920F931F93CF93CB
S1130CB0DF938C01F62ED42EE901F1DFE12CD8016B
S1130CC01296ED91FC9113976881C80109958F3FA5
S1130CD0BFEF9B0769F021968E3F2FEF920779F3C0
S1130CE0282F4D2D6F2DC801ABDFF394E394E7CF8C
S1130CF08E2DDF91CF911F910F91FF90EF90DF9098
S1130D000895EFE0F6E0DC011396FC93EE9312975E
S1130D10C9CF0895462F50E0FA01B897EC32F10597
S1130D2078F4EA5BFF4F40C4FC01168A0CC0FC0156
S1130D30168A09C0FC01168A06C0FC01168A03C083
S1130D4021E0FC01268B81E008950F931F93CF933C
S1130D50C42F89016831A9F028F46431D1F06731D6
S1130D6061F004C0693191F0603299F080E012C002
S1130D70F80181918F017CDDC150C111F9CF81E06F
S1130D8009C0FC0182894EDD81E004C083DD81E07D
S1130D9001C081E0CF911F910F9108950F931F938C
S1130DA00AE816E025EA36E04BEB57E060E579E027
S1130DB081E092E0B3D281E092E08FD160E081E003
S1130DC092E096D181E092E0D5D164EE70E081E0CA
S1130DD092E032DF80E01F910F9108959A01DC01C7
S1130DE01896ED91FC911997462F67E1099508959E
S1130DF0CF93DF931F92CDB7DEB76983AE014F5F08
S1130E005F4F61E0EBDF0F90DF91CF910895DC013C
S1130E101896ED91FC91199720E030E040E068E1EC
S1130E2009950895DC011896ED91FC91199720E03D
S1130E3030E040E069E109950895EF92FF921F9335
S1130E40CF93DF93EC01162F7A01E1DF60E4CE014A
S1130E50CFDFE885F9859701412F67E1CE01099538
S1130E60CE01E0DFDF91CF911F91FF90EF900895C5
S1130E70462FDC011696ED91FC91179720E030E0A7
S1130E8065E109950895462FDC011696ED91FC91D4
S1130E90179720E030E066E1099508959A01DC0196
S1130EA01696ED91FC911797462F67E109950895E1
S1130EB0DC011696ED91FC91179720E030E040E0BC
S1130EC068E109950895DC011696ED91FC91179758
S1130ED020E030E040E069E109950895EF92FF9247
S1130EE00F931F93CF93DF931F92CDB7DEB77C018F
S1130EF08B01D8016D918D016731B9F018F465311A
S1130F0030F431C06A31E0F06E3F29F12CC0FD01AC
S1130F1041918F014983D7011696ED91FC91179762
S1130F2020E030E0C7010995E4CFFD0181918F01F4
S1130F308983AE014F5F5F4F61E0C701AFDFD9CF57
S1130F40D7011696ED91FC91179720E030E040E030
S1130F50C7010995CECFFD0141918F01498369E213
S1130F60C701BDD1C6CF0F90DF91CF911F910F91D3
S1130F70FF90EF900895EF92FF920F931F93CF93FA
S1130F807C01C42F8901673128F4653148F4643148
S1130F9009F104C06731B1F06A3178F180E02EC004
S1130FA036DF60E0C70124DF6C2FC70121DFC701F2
S1130FB039DF81E023C0A80168E1C7013EDFC851E1
S1130FC0085E1F4FC931B8F7A8016C2FC70135DF80
S1130FD081E014C0DC0152968C9152978F3F19F432
S1130FE088E752968C93D7011896ED91FC91199746
S1130FF098014C2FC701099501C081E0CF911F9141
S11310000F91FF90EF900895FC0171836083FB01C1
S11310102289FC01208B0895CF93DF93EC01EA85AC
S1131020FB8520E030E040E068E20995EE81FF8135
S113103020E030E040E064E1CE01099541E06BE45A
S1131040CE014DD1E881F981448169E2CE0147D1D5
S113105040E06BE4CE0143D1E881F981448169E247
S1131060CE013DD141E06BE4CE0139D1E881F98173
S1131070458169E2CE0133D1DF91CF9108950F9379
S11310801F93CF93DF9300D000D01F92CDB7DEB76C
S11310906C834D832B831A830983DC011496ED91B1
S11310A0FC9115979E012F5F3F4F41E06FE009953A
S11310B00F900F900F900F900F90DF91CF911F9191
S11310C00F910895DC011496ED91FC91159720E0A1
S11310D030E040E069E009950895DC011496ED9153
S11310E0FC91159720E030E040E06AE0099508950E
S11310F0462FDC011496ED91FC91159720E030E029
S11311006BE009950895CF92DF92FF920F931F939E
S1131110CF93DF9300D000D01F92CDB7DEB78C0100
S11311201C8281E08B837A836983D801ED91FC91E1
S1131130F1881D82F801C480D580A081B1819E010F
S11311402F5F3F4F50964C916FE0C801F60109950F
S11311508D818F5F8D838F1568F30F900F900F90A3
S11311600F900F90DF91CF911F910F91FF90DF901F
S1131170CF900895CF93DF93CDB7DEB728970FB6FE
S1131180F894DEBF0FBECDBFBE016F5F7F4F28E076
S1131190FB0111922A95E9F7B6DF28960FB6F89469
S11311A0DEBF0FBECDBFDF91CF910895EF92FF92C6
S11311B00F931F93CF93DF938C01C42F79016D306C
S11311C0A9F018F46B3031F063C06E3049F16F3020
S11311D091F15EC0411105C066E671E07FDE81E0F9
S11311E058C061E671E07ADE81E053C041110CC061
S11311F06AE571E073DED801ED91FC911197828963
S113120050968C9381E045C063E571E067DED801B8
S1131210ED91FC911197838950968C9381E039C0AC
S113122047DE61E8C80124DE6C2FC8012CDEC8014A
S11312304ADE81E02EC03CDEF701D381DD0FDD0FF5
S1131240DD0FD80150968C91D80F60E4C80110DEF0
S11312506D2F62956F706061C8010ADE6D2F6F702B
S1131260C80111DEF7016481606BC8010CDED7018F
S113127012966C9112974D915C91660F660F660FF2
S1131280C8010CDEC15099F7C8011DDE81E001C020
S113129080E0DF91CF911F910F91FF90EF9008951F
S11312A00F931F93CF938C01C62F80DF811112C03F
S11312B0C93051F0CA3079F4C801AEDE6BE671E092
S11312C0C8010CDE81E007C06BE371E0C8019CDE5D
S11312D081E001C081E0CF911F910F910895DC015D
S11312E01A96ED91FC911B9720E030E00995089542
S11312F080E00895FC011182108288E799E09583CB
S11313008483978386839187808793878287118AD2
S1131310148A158A8FEF828B878B0895AF92BF92C0
S1131320CF92DF92EF92FF920F931F93CF93DF93AD
S1131330EC015B016A017901DDDFBD82AC82DF82F1
S1131340CE82F986E8861B870A87CE01BBDEDF9151
S1131350CF911F910F91FF90EF90DF90CF90BF90AE
S1131360AF90089504D06894B1118DC0089570D0E1
S113137088F09F5790F0B92F9927B751A0F0D1F07A
S1131380660F771F881F991F1AF0BA95C9F712C004
S1131390B13081F077D0B1E0089574C0672F782F11
S11313A08827B85F39F0B93FCCF386957795679570
S11313B0B395D9F73EF490958095709561957F4FDC
S11313C08F4F9F4F0895E89409C097FB3EF4909582
S11313D08095709561957F4F8F4F9F4F9923A9F00A
S11313E0F92F96E9BB279395F69587957795679599
S11313F0B795F111F8CFFAF4BB0F11F460FF1BC0DD
S11314006F5F7F4F8F4F9F4F16C0882311F096E96F
S113141011C0772321F09EE8872F762F05C066231D
S113142071F096E8862F70E060E02AF09A95660FD6
S1131430771F881FDAF7880F9695879597F908958F
S113144057FD9058440F551F59F05F3F71F0479571
S1131450880F97FB991F61F09F3F79F08795089556
S1131460121613061406551FF2CF4695F1DF08C075
S1131470161617061806991FF1CF86957105610592
S113148008940895E894BB2766277727CB0197F93A
S113149008950BD078C069D028F06ED018F0952349
S11314A009F05AC05FC01124EECFCADFA0F3959FA4
S11314B0D1F3950F50E0551F629FF001729FBB2737
S11314C0F00DB11D639FAA27F00DB11DAA1F649FE3
S11314D06627B00DA11D661F829F2227B00DA11D96
S11314E0621F739FB00DA11D621F839FA00D611D1C
S11314F0221F749F3327A00D611D231F849F600D3D
S1131500211D822F762F6A2F11249F5750408AF075
S1131510E1F088234AF0EE0FFF1FBB1F661F771F01
S1131520881F91505040A9F79E3F510570F014C098
S1131530AACF5F3FECF3983EDCF3869577956795E9
S1131540B795F795E7959F5FC1F7FE2B880F911D1F
S11315509695879597F9089597F99F6780E870E0C5
S113156060E008959FEF80EC089500240A94161615
S1131570170618060906089500240A94121613067D
S1131580140605060895092E0394000C11F488230B
S113159052F0BB0F40F4BF2B11F460FF04C06F5F27
S11315A07F4F8F4F9F4F0895EE0FFF1F0024001CA5
S11315B00BBE0790F691E02D09940F931F93CF93E0
S11315C0DF93CDB7DEB72E970FB6F894DEBF0FBE0C
S11315D0CDBF0D891E8986E08C831A8309838FEF22
S11315E09FE79E838D83AE01475E5F4F6F89788D41
S11315F0CE01019610D0EF81F885E00FF11F108223
S11316002E960FB6F894DEBF0FBECDBFDF91CF91FB
S11316101F910F9108952F923F924F925F926F9274
S11316207F928F929F92AF92BF92CF92DF92EF926E
S1131630FF920F931F93CF93DF93CDB7DEB72B9712
S11316400FB6F894DEBF0FBECDBF6C017B018A01DB
S1131650FC0117821682838181FFBFC1CE010196EE
S11316603C01F6019381F70193FD859193FF8191EC
S11316707F01882309F4ADC1853239F493FD859146
S113168093FF81917F01853221F4B60190E0D6D198
S1131690E8CF912C212C312CFFE1F315D8F08B32BB
S11316A079F038F4803279F08332A1F4232D20616B
S11316B01DC08D3261F0803369F4232D216016C082
S11316C0832D8260382EE32DE4603E2E2AC0F32D54
S11316D0F8601DC037FC2DC020ED280F2A3040F0E3
S11316E08E32B9F436FC75C1232D2064322E19C014
S11316F036FE06C08AE0989E200D1124922E11C059
S1131700EAE02E9E200D1124222EF32DF0623F2EAE
S113171008C08C3621F4832D8068382E02C08836A8
S113172041F4F70193FD859193FF81917F0181112C
S1131730B3CF982F9F7D9554933028F40C5F1F4F9F
S11317409FE399830DC0833631F0833771F083357D
S113175009F055C020C0F801808189830E5F1F4FB6
S113176088248394912C530112C02801F2E04F0E77
S1131770511CF801A080B18036FE03C0692D70E0D1
S113178002C06FEF7FEFC5014ED14C018201F32DF2
S1131790FF773F2E15C0280122E0420E511CF801AC
S11317A0A080B18036FE03C0692D70E002C06FEFE7
S11317B07FEFC5012DD14C01F32DF0683F2E82013E
S11317C033FC19C0822D90E088169906A0F4B60166
S11317D080E290E033D12A94F5CFF50137FC85916E
S11317E037FE81915F01B60190E028D121102A943F
S11317F021E0821A91088114910479F7E1C08436BA
S113180011F0893639F5F80137FE07C0608171811E
S1131810828193810C5F1F4F08C060817181072E04
S1131820000C880B990B0E5F1F4FF32DFF763F2E94
S113183097FF09C090958095709561957F4F8F4F64
S11318409F4FF0683F2E2AE030E0A30133D1882E69
S1131850861844C0853731F4232D2F7EB22E2AE01A
S113186030E025C0932D997FB92E8F36C1F018F43E
S1131870883579F0AEC0803719F0883721F0A9C0D7
S1131880E92FE061BE2EB4FE0DC0FB2DF460BF2E27
S113189009C034FE0AC0292F2660B22E06C028E0F3
S11318A030E005C020E130E002C020E132E0F80180
S11318B0B7FE07C060817181828193810C5F1F4FE5
S11318C006C06081718180E090E00E5F1F4FA3012C
S11318D0F1D0882E8618FB2DFF773F2E36FE0DC0E3
S11318E0232D2E7FA22E891458F434FE0BC032FC13
S11318F009C0832D8E7EA82E05C0B82CA32C03C04E
S1131900B82C01C0B92CA4FE0FC0FE01E80DF11DD6
S11319108081803321F49A2D997EA92E09C0A2FEDC
S113192006C0B394B39404C08A2D867809F0B394A6
S1131930A3FC10C0A0FE06C0B21480F4280C922CA4
S11319409B180DC0B21458F4B60180E290E076D032
S1131950B394F8CFB21418F42B1802C0982C212C8D
S1131960A4FE0FC0B60180E390E068D0A2FE16C0CA
S1131970A1FC03C088E790E002C088E590E0B601CE
S11319800CC08A2D867851F0A1FE02C08BE201C002
S113199080E2A7FC8DE2B60190E050D0891430F4C7
S11319A0B60180E390E04AD09A94F8CF8A94F30188
S11319B0E80DF11D8081B60190E040D08110F6CF92
S11319C0222009F44ECEB60180E290E037D02A946A
S11319D0F7CFF6018681978102C08FEF9FEF2B9698
S11319E00FB6F894DEBF0FBECDBFDF91CF911F912C
S11319F00F91FF90EF90DF90CF90BF90AF909F90AA
S1131A008F907F906F905F904F903F902F900895AC
S1131A10FC010590615070400110D8F780959095B5
S1131A208E0F9F1F0895FC016150704001900110BA
S1131A30D8F7809590958E0F9F1F08950F931F934D
S1131A40CF93DF93FB01238121FD03C08FEF9FEF31
S1131A502CC022FF16C0468157812481358142174C
S1131A60530744F4A081B1819D012F5F3F4F31831F
S1131A7020838C93268137812F5F3F4F37832683C2
S1131A8014C08B01EC01FB010084F185E02D099564
S1131A90892BE1F6D80116968D919C9117970196A2
S1131AA017969C938E931697CE01DF91CF911F9139
S1131AB00F910895FA01AA27283051F1203181F1BC
S1131AC0E8946F936E7F6E5F7F4F8F4F9F4FAF4F42
S1131AD0B1E03ED0B4E03CD0670F781F891F9A1F55
S1131AE0A11D680F791F8A1F911DA11D6A0F711D09
S1131AF0811D911DA11D20D009F468943F912AE015
S1131B00269F11243019305D3193DEF6CF010895FC
S1131B10462F4770405D4193B3E00FD0C9F7F6CF2D
S1131B20462F4F70405D4A3318F0495D31FD4052F5
S1131B30419302D0A9F7EACFB4E0A695979587958B
S1131B4077956795BA95C9F700976105710508956A
S1131B509B01AC010A2E0694579547953795279516
S1131B60BA95C9F7620F731F841F951FA01D0895AE
S1071B70F894FFCF13
S1131B742564636D202020004369747920506172C8
S1131B846B696E67004761746520436C6F736564A9
S1131B940045204761746520636C6F736564004578
S1131BA42047617465204F70656E000001140A6457
S1131BB464323200093D00000428961008000080B5
S1131BC40040001815A015C019FF1815A115C8194F
S1131BD4FF1815AE19FF1815AF19FF1815AE15D552
S1131BE4168015A8163F15D316001540158D161426
S1131BF41520160015A115C815DA1612158116EF4D
S1131C0415D916A115DB1600152E15A415A619FF52
S9030000FC
